:100000000C943E000C94FB010C94FB010C94FB013E
:100010000C94FB010C94FB010C94FB010C94FB0170
:100020000C94FB010C94FB010C94FB010C94FB0160
:100030000C94FB010C94C3000C94FB010C94FB0189
:100040000C94FB010C94FB010C94FB010C94FB0140
:100050000C94FB0100B200C000044B00CE00DB009A
:10006000046700C000CE00045900DB00E8000474FF
:10007000006100B20003FA006000618011241FBE1D
:10008000CFE5D8E0DEBFCDBFE4E5F0E040E017C04B
:10009000B591A59135912591059107FD0CC09591DC
:1000A0008591EF01F92FE82F05900D92A217B30764
:1000B000D9F7FE0104C01D92A217B307E1F7EC3790
:1000C000F40731F70E9454010C946600F894FFCFB6
:1000D000AF92BF92CF92DF92EF92FF920F931F9356
:1000E000ABB1F501EE0FFF1FEA2BEBB9EAB1220F1E
:1000F000331F22953295307F3227207F32272E2BD7
:100100005695542F442757954795422B82959295A3
:10011000907F9827807F9827482B660F771F660F60
:10012000771F660F771F642B6AB980B5CC0CDD1C76
:100130008068C82AEE0CFF1CEC28E0BC01151105F4
:1001400051F00130110521F480B5806C80BD03C0F1
:1001500080B5806880BDA114B10421F0AA94AB28B9
:1001600021F006C087E689B905C08FEC89B902C0C5
:1001700087E689B91F910F91FF90EF90DF90CF90A4
:06018000BF90AF9008954E
:100186001F920F920FB60F9211242F933F934F9306
:100196005F936F937F938F939F93AF93BF93EF93E9
:1001A600FF938CB1809360008F7D8F3439F48BED93
:1001B60090E00E94E4010E94CF011AC0833439F412
:1001C60080EC90E00E94E4010E94CF0111C08735C7
:1001D60039F48EEC90E00E94E4010E94CF0108C041
:1001E600833531F482EB90E00E94E4010E94CF0156
:1001F600FF91EF91BF91AF919F918F917F916F91F9
:100206005F914F913F912F910F900FBE0F901F90CE
:02021600189539
:10021800FF920F931F93CF93DF93EB01F42E890185
:10022800009711F1019799F561E070E084E090E0A2
:100238000E948D0161E070E085E090E00E948D01F0
:1002480061E070E087E090E00E948D018DB18065EB
:10025800F82A1695102F002717950795F02ACC0F26
:10026800DD1FCF29CDB916C061E070E086E090E0CF
:100278000E948D018DB18064F82A1695102F0027F1
:10028800179507950F29CC0FDD1FC02BCDB98DB160
:1002980083648DB9DF91CF911F910F91FF900895DD
:1002A80061E070E087E090E00E94AE01A12CB12CE3
:1002B800CC24C394D12CEE24E394F12C00E010E07C
:1002C80020E030E041E050E061E070E081E090E063
:1002D8000E94680020E030E041E050E061E070E01A
:1002E80081E090E00E940C0181E690E00E94E40128
:1002F8000E94CF017894809160000E94F7012FEF4F
:1003080081EE94E0215080409040E1F700C0000069
:02031800F2CF22
:10031A006115710581F061307105D1F447B321E0AF
:10032A0030E0B90102C0660F771F8A95E2F7CB0168
:10033A00842B87BB089547B321E030E0B90102C09E
:10034A00660F771F8A95E2F7CB018095842387BBD6
:02035A00089504
:10035C006115710581F061307105D1F444B321E070
:10036C0030E0B90102C0660F771F8A95E2F7CB0126
:10037C00842B84BB089544B321E030E0B90102C062
:10038C00660F771F8A95E2F7CB018095842384BB97
:02039C000895C2
:10039E00CF93DF9300D01F92CDB7DEB789E09DE0FB
:1003AE009A8389831B82CE0101960E94E4010F90ED
:0A03BE000F900F90DF91CF9108958A
:1003C800CF93DF93EC018881882331F021960E9436
:0E03D800F30189918111FBCFDF91CF91089540
:0803E6005D9BFECF8CB9089568
:0803EE008FB9779BFECF089543
:0403F6000C94000063
:1003FA00456E746572204F2F6F20746F204F7065A1
:10040A006E202620432F6320746F20436C6F736520
:10041A00204C4544203120090D456E7465722057E1
:10042A002F7720746F204F70656E202620532F730C
:10043A002020746F20436C6F7365204C4544203232
:01044A0000B1
:0E044B0020204C454432206973204F46460065
:0E04590020204C454431206973204F46460058
:0D04670020204C454432206973204F4E0088
:0D04740020204C454431206973204F4E007C
:00000001FF
