:100000000C942A000C9401010C9401010C94010140
:100010000C9401010C9401010C9401010C94010158
:100020000C9401010C9401010C9401010C94010148
:100030000C949C000C9401010C9401010C9401019E
:100040000C9401010C9401010C9401010C94010128
:100050000C94010111241FBECFE5D8E0DEBFCDBF57
:10006000E4E5F0E040E017C0B591A5913591259108
:10007000059107FD0CC095918591EF01F92FE82FAF
:1000800005900D92A217B307D9F7FE0104C01D9287
:10009000A217B307E1F7E435F40731F70E94E8004F
:0800A0000C945200F894FFCF0C
:1000A800FF920F931F93CF93DF93EB01F42E8901F7
:1000B800009711F1019799F561E070E084E090E014
:1000C8000E94C70061E070E085E090E00E94C700F0
:1000D80061E070E087E090E00E94C7008DB1806524
:1000E800F82A1695102F002717950795F02ACC0F98
:1000F800DD1FCF29CDB916C061E070E086E090E041
:100108000E94C7008DB18064F82A1695102F002729
:10011800179507950F29CC0FDD1FC02BCDB98DB1D1
:1001280083648DB9DF91CF911F910F91FF9008954E
:100138001F920F920FB60F9211248F938FB18F34A5
:1001480019F08FB18F3611F4AF9A17C08FB183347D
:1001580019F08FB1833611F4AF980FC08FB187357E
:1001680019F08FB1873711F4AA9A07C08FB1833578
:1001780019F08FB1833709F4AA988F910F900FBEA9
:060188000F901F90189576
:10018E006115710581F061307105D1F447B321E03D
:10019E0030E0B90102C0660F771F8A95E2F7CB01F6
:1001AE00842B87BB089547B321E030E0B90102C02C
:1001BE00660F771F8A95E2F7CB018095842387BB64
:0201CE00089592
:1001D00081E090E00E94F80021E030E041E050E052
:1001E00061E070E080E090E00E9454007894FFCFDE
:1001F000009729F0019721F48FEF84BB089514BA7A
:0202000008955F
:040202000C94000058
:00000001FF
